:020000040800F2
:10000000002800200D1700089D160008A316000800
:10001000A9160008AF160008B51600080000000079
:10002000000000000000000000000000BB160008F7
:10003000C716000800000000D3160008DF160008ED
:1000400055170008551700085517000855170008E0
:1000500055170008551700085517000855170008D0
:1000600055170008551700085517000855170008C0
:1000700055170008551700085517000855170008B0
:1000800055170008551700085517000855170008A0
:100090005517000855170008551700085517000890
:1000A0005517000855170008551700085517000880
:1000B000ED1600085517000800000000551700084D
:1000C0005517000800000000000000005517000848
:1000D0000000000055170008551700080000000038
:1000E00055170008551700085517000800000000B4
:1000F0000000000000000000000000000000000000
:0C01000000000000000000005FF808F1A3
:10010C0010B5054C237833B9044B13B10448AFF345
:10011C0000800123237010BD34000020000000007B
:10012C00582D000808B5034B1BB103490348AFF326
:10013C00008008BD0000000038000020582D000889
:10014C0080B400AF274B1B680933122B07D8264B02
:10015C0000221A60234B1B68234A536018E0214B82
:10016C001B68224A82FB03129210DB17D31A1E4A19
:10017C0013601C4B19681D4B83FB01239A10CB1782
:10018C00D21A13469B0013445B00CA1A164B5A60D2
:10019C00174B1B680933122B07D8134B00229A609C
:1001AC00134B1B68104AD36018E0114B1B680F4AA5
:1001BC0082FB03129210DB17D31A0B4A93600C4B81
:1001CC0019680A4B83FB01239A10CB17D21A1346DA
:1001DC009B0013445B00CA1A034BDA6000BFBD4698
:1001EC0080BC70471800002000000020676666661F
:1001FC001C00002080B582B000AF78607B68092BB2
:10020C0000F2808101A252F823F000BF41020008E5
:10021C0089020008D10200081903000861030008D4
:10022C00A9030008F1030008390400088104000840
:10023C00C904000800220121B54801F071FD00221B
:10024C000221B34801F06CFD00220421B04801F0FA
:10025C0067FD00220821AE4801F062FD002210214A
:10026C00AB4801F05DFD00222021A94801F058FDAA
:10027C0001224021A64801F053FD44E10122012155
:10028C00A34801F04DFD00220221A14801F048FDD8
:10029C00002204219E4801F043FD012208219C48C4
:1002AC0001F03EFD01221021994801F039FD012297
:1002BC002021974801F034FD01224021944801F09F
:1002CC002FFD20E100220121914801F029FD00229F
:1002DC0002218F4801F024FD012204218C4801F0F9
:1002EC001FFD002208218A4801F01AFD002210216E
:1002FC00874801F015FD01222021854801F010FDF1
:10030C0000224021824801F00BFDFCE0002201217B
:10031C007F4801F005FD002202217D4801F000FD1F
:10032C00002204217A4801F0FBFC002208217848C5
:10033C0001F0F6FC01221021754801F0F1FC0122BC
:10034C002021734801F0ECFC00224021704801F0A0
:10035C00E7FCD8E0012201216D4801F0E1FC00220C
:10036C0002216B4801F0DCFC00220421684801F0FA
:10037C00D7FC01220821664801F0D2FC0122102191
:10038C00634801F0CDFC00222021614801F0C8FC3B
:10039C00002240215E4801F0C3FCB4E000220121A0
:1003AC005B4801F0BDFC01220221594801F0B8FC68
:1003BC0000220421564801F0B3FC002208215448C5
:1003CC0001F0AEFC01221021514801F0A9FC0022E1
:1003DC0020214F4801F0A4FC002240214C4801F0A0
:1003EC009FFC90E000220121494801F099FC012278
:1003FC000221474801F094FC00220421444801F0FA
:10040C008FFC00220821424801F08AFC00221021B6
:10041C003F4801F085FC002220213D4801F080FC82
:10042C00002240213A4801F07BFC6CE000220121C3
:10043C00374801F075FC00220221354801F070FCB0
:10044C0000220421324801F06BFC012208213048C3
:10045C0001F066FC012210212D4801F061FC012203
:10046C0020212B4801F05CFC01224021284801F09E
:10047C0057FC48E000220121254801F051FC0022E4
:10048C000221234801F04CFC00220421204801F0F9
:10049C0047FC002208211E4801F042FC00221021DA
:1004AC001B4801F03DFC00222021194801F038FCCA
:1004BC0000224021164801F033FC24E000220121E7
:1004CC00134801F02DFC00220221114801F028FCF8
:1004DC00002204210E4801F023FC002208210C48C4
:1004EC0001F01EFC01221021094801F019FC002228
:1004FC002021074801F014FC00224021044801F09F
:10050C000FFC00E000BF00BF0837BD4680BD00BF38
:10051C00000C014080B582B000AF78607B68032B83
:10052C007AD801A252F823F0450500087D05000891
:10053C00B5050008ED05000800224021394801F0FE
:10054C00EFFB01228021374801F0EAFB01224FF436
:10055C008071344801F0E4FB01224FF40071314802
:10056C0001F0DEFB304B1B681846FFF743FE54E0EE
:10057C00012240212B4801F0D3FB00228021294885
:10058C0001F0CEFB01224FF48071264801F0C8FB2C
:10059C0001224FF40071234801F0C2FB224B5B682F
:1005AC001846FFF727FE38E0012240211D4801F0D4
:1005BC00B7FB012280211B4801F0B2FB00224FF453
:1005CC008071184801F0ACFB01224FF40071154802
:1005DC0001F0A6FB144B9B681846FFF70BFE1CE0C2
:1005EC00012240210F4801F09BFB012280210D4884
:1005FC0001F096FB01224FF480710A4801F090FB48
:10060C0000224FF40071074801F08AFB064BDB68AF
:10061C001846FFF7EFFD00E000BF00BF0837BD46EE
:10062C0080BD00BF000801400000002080B582B0F2
:10063C0000AF786039607B68072B00F2198501A246
:10064C0052F823F071060008B1070008F9080008F9
:10065C00370A00087D0B0008BB0C0008010E0008CF
:10066C003F0F000800224FF480719E4801F058FBA8
:10067C0001224FF400719B4801F052FB01224FF410
:10068C008061984801F04CFB01224FF400619548C1
:10069C0001F046FB01224FF48051924801F040FBDF
:1006AC0001224FF400518F4801F03AFB01224FF424
:1006BC0080418C4801F034FB01224FF40041894801
:1006CC0001F02EFB3B68DBB203F00103DBB21A46F0
:1006DC000421854801F024FB3B685B103B603B68C0
:1006EC00DBB203F00103DBB21A4608217E4801F0AD
:1006FC0017FB3B685B103B603B68DBB203F001030C
:10070C00DBB21A464FF48061774801F009FB3B6875
:10071C005B103B603B68DBB203F00103DBB21A46B3
:10072C004FF40061704801F0FBFA3B685B103B60D2
:10073C003B68DBB203F00103DBB21A464FF4805185
:10074C00694801F0EDFA3B685B103B603B68DBB23B
:10075C0003F00103DBB21A464FF40051624801F07A
:10076C00DFFA3B685B103B603B68DBB203F00103D4
:10077C00DBB21A464FF480415B4801F0D1FA3B687A
:10078C005B103B603B68DBB203F00103DBB21A4643
:10079C004FF40041544801F0C3FA3B685B103B60D6
:1007AC0000F067BC01224FF480714E4801F0B8FA9A
:1007BC0000224FF400714B4801F0B2FA01224FF4C1
:1007CC008061484801F0ACFA01224FF400614548C1
:1007DC0001F0A6FA01224FF48051424801F0A0FA30
:1007EC0001224FF400513F4801F09AFA01224FF4D4
:1007FC0080413C4801F094FA01224FF40041394801
:10080C0001F08EFA3B68DBB203F00103DBB21A464F
:10081C000421354801F084FA3B685B103B603B686F
:10082C00DBB203F00103DBB21A4608212E4801F0BB
:10083C0077FA3B685B103B603B68DBB203F001036B
:10084C00DBB21A464FF48061274801F069FA3B6825
:10085C005B103B603B68DBB203F00103DBB21A4672
:10086C004FF40061204801F05BFA3B685B103B6081
:10087C003B68DBB203F00103DBB21A464FF4805144
:10088C00194801F04DFA3B685B103B603B68DBB2EA
:10089C0003F00103DBB21A464FF40051124801F089
:1008AC003FFA3B685B103B603B68DBB203F0010333
:1008BC00DBB21A464FF480410B4801F031FA3B6829
:1008CC005B103B603B68DBB203F00103DBB21A4602
:1008DC004FF40041044801F023FA3B685B103B6085
:1008EC00C7E300BF000C01400008014001224FF497
:1008FC0080719D4801F014FA01224FF400719A485E
:10090C0001F00EFA00224FF48061974801F008FACA
:10091C0001224FF40061944801F002FA01224FF4D5
:10092C008051914801F0FCF901224FF400518E489E
:10093C0001F0F6F901224FF480418B4801F0F0F9F7
:10094C0001224FF40041884801F0EAF93B68DBB220
:10095C0003F00103DBB21A460421844801F0E0F9EC
:10096C003B685B103B603B68DBB203F00103DBB21E
:10097C001A4608217D4801F0D3F93B685B103B60B7
:10098C003B68DBB203F00103DBB21A464FF4806123
:10099C00764801F0C5F93B685B103B603B68DBB205
:1009AC0003F00103DBB21A464FF400616F4801F00B
:1009BC00B7F93B685B103B603B68DBB203F00103AB
:1009CC00DBB21A464FF48051684801F0A9F93B6834
:1009DC005B103B603B68DBB203F00103DBB21A46F1
:1009EC004FF40051614801F09BF93B685B103B6090
:1009FC003B68DBB203F00103DBB21A464FF48041D3
:100A0C005A4801F08DF93B685B103B603B68DBB2E8
:100A1C0003F00103DBB21A464FF40041534801F0D6
:100A2C007FF93B685B103B6023E301224FF480713C
:100A3C004D4801F075F901224FF400714A4801F05C
:100A4C006FF901224FF48061474801F069F90022E7
:100A5C004FF40061444801F063F901224FF48051D6
:100A6C00414801F05DF901224FF400513E4801F07C
:100A7C0057F901224FF480413B4801F051F9012212
:100A8C004FF40041384801F04BF93B68DBB203F0FE
:100A9C000103DBB21A460421344801F041F93B68EA
:100AAC005B103B603B68DBB203F00103DBB21A4620
:100ABC0008212E4801F034F93B685B103B603B6821
:100ACC00DBB203F00103DBB21A464FF48061274816
:100ADC0001F026F93B685B103B603B68DBB203F02E
:100AEC000103DBB21A464FF40061204801F018F9FB
:100AFC003B685B103B603B68DBB203F00103DBB28D
:100B0C001A464FF48051194801F00AF93B685B1002
:100B1C003B603B68DBB203F00103DBB21A464FF4D7
:100B2C000051124801F0FCF83B685B103B603B68DD
:100B3C00DBB203F00103DBB21A464FF480410B48E1
:100B4C0001F0EEF83B685B103B603B68DBB203F0F6
:100B5C000103DBB21A464FF40041044801F0E0F8FF
:100B6C003B685B103B6084E2000C014000080140D4
:100B7C0001224FF480719D4801F0D2F801224FF40C
:100B8C0000719A4801F0CCF801224FF4806197482B
:100B9C0001F0C6F801224FF40061944801F0C0F84E
:100BAC0000224FF48051914801F0BAF801224FF421
:100BBC0000518E4801F0B4F801224FF480418B486B
:100BCC0001F0AEF801224FF40041884801F0A8F87A
:100BDC003B68DBB203F00103DBB21A460421844804
:100BEC0001F09EF83B685B103B603B68DBB203F0A6
:100BFC000103DBB21A4608217D4801F091F83B68ED
:100C0C005B103B603B68DBB203F00103DBB21A46BE
:100C1C004FF48061764801F083F83B685B103B60D1
:100C2C003B68DBB203F00103DBB21A464FF4006100
:100C3C006F4801F075F83B685B103B603B68DBB2BA
:100C4C0003F00103DBB21A464FF48051684801F0FF
:100C5C0067F83B685B103B603B68DBB203F0010359
:100C6C00DBB21A464FF40051614801F059F83B6869
:100C7C005B103B603B68DBB203F00103DBB21A464E
:100C8C004FF480415A4801F04BF83B685B103B60D5
:100C9C003B68DBB203F00103DBB21A464FF40041B0
:100CAC00534801F03DF83B685B103B60E1E10122E9
:100CBC004FF480714D4801F033F801224FF400716C
:100CCC004A4801F02DF801224FF48061474801F0A9
:100CDC0027F801224FF40061444801F021F8012269
:100CEC004FF48051414801F01BF800224FF40051A1
:100CFC003E4801F015F801224FF480413B4801F0C9
:100D0C000FF801224FF40041384801F009F83B6814
:100D1C00DBB203F00103DBB21A460421344800F0C5
:100D2C00FFFF3B685B103B603B68DBB203F00103E9
:100D3C00DBB21A4608212E4800F0F2FF3B685B102C
:100D4C003B603B68DBB203F00103DBB21A464FF4A5
:100D5C008061274800F0E4FF3B685B103B603B6818
:100D6C00DBB203F00103DBB21A464FF400612048FA
:100D7C0000F0D6FF3B685B103B603B68DBB203F0D6
:100D8C000103DBB21A464FF48051194800F0C8FF3A
:100D9C003B685B103B603B68DBB203F00103DBB2EA
:100DAC001A464FF40051124800F0BAFF3B685B1032
:100DBC003B603B68DBB203F00103DBB21A464FF435
:100DCC0080410B4800F0ACFF3B685B103B603B681C
:100DDC00DBB203F00103DBB21A464FF400410448C6
:100DEC0000F09EFF3B685B103B6042E1000C014051
:100DFC000008014001224FF48071A04800F090FFE0
:100E0C0001224FF400719D4800F08AFF01224FF43B
:100E1C0080619A4800F084FF01224FF400619748EA
:100E2C0000F07EFF01224FF48051944800F078FFCF
:100E3C0001224FF40051914800F072FF00224FF450
:100E4C0080418E4800F06CFF01224FF400418B482A
:100E5C0000F066FF3B68DBB203F00103DBB21A461D
:100E6C000421874800F05CFF3B685B103B603B68EB
:100E7C00DBB203F00103DBB21A460821804800F014
:100E8C004FFF3B685B103B603B68DBB203F0010338
:100E9C00DBB21A464FF48061794800F041FF3B68A1
:100EAC005B103B603B68DBB203F00103DBB21A461C
:100EBC004FF40061724800F033FF3B685B103B60FD
:100ECC003B68DBB203F00103DBB21A464FF48051EE
:100EDC006B4800F025FF3B685B103B603B68DBB266
:100EEC0003F00103DBB21A464FF40051644800F0E2
:100EFC0017FF3B685B103B603B68DBB203F0010300
:100F0C00DBB21A464FF480415D4800F009FF3B68A4
:100F1C005B103B603B68DBB203F00103DBB21A46AB
:100F2C004FF40041564800F0FBFE3B685B103B6001
:100F3C009FE001224FF48071504800F0F1FE012235
:100F4C004FF400714D4800F0EBFE01224FF480612C
:100F5C004A4800F0E5FE01224FF40061474800F0DA
:100F6C00DFFE01224FF48051444800F0D9FE0122EB
:100F7C004FF40051414800F0D3FE01224FF4804160
:100F8C003E4800F0CDFE00224FF400413B4800F0FB
:100F9C00C7FE3B68DBB203F00103DBB21A46042147
:100FAC00374800F0BDFE3B685B103B603B68DBB232
:100FBC0003F00103DBB21A460821314800F0B0FE01
:100FCC003B685B103B603B68DBB203F00103DBB2B8
:100FDC001A464FF480612A4800F0A2FE3B685B1071
:100FEC003B603B68DBB203F00103DBB21A464FF403
:100FFC000061234800F094FE3B685B103B603B684B
:10100C00DBB203F00103DBB21A464FF480511C48EB
:10101C0000F086FE3B685B103B603B68DBB203F084
:10102C000103DBB21A464FF40051154800F078FE6C
:10103C003B685B103B603B68DBB203F00103DBB247
:10104C001A464FF480410E4800F06AFE3B685B1074
:10105C003B603B68DBB203F00103DBB21A464FF492
:10106C000041074800F05CFE3B685B103B6000E011
:10107C0000BF00BF0837BD4680BD00BF000C01405B
:10108C000008014080B582B000AF78607B68072B08
:10109C004AD801A252F823F0C5100008D31000085A
:1010AC00E1100008EF100008FD1000080B110008FB
:1010BC0019110008271100081E4B1B781946002037
:1010CC00FFF7B4FA31E01B4B5B7819460120FFF7B0
:1010DC00ADFA2AE0174B9B7819460220FFF7A6FAC7
:1010EC0023E0144BDB7819460320FFF79FFA1CE032
:1010FC00104B1B7919460420FFF798FA15E00D4B9D
:10110C005B7919460520FFF791FA0EE0094B9B79A4
:10111C0019460620FFF78AFA07E0064BDB791946D9
:10112C000720FFF783FA00E000BF00BF0837BD4679
:10113C0080BD00BF1000002080B400AF134B1B68B3
:10114C000133124A1360114B1B683B2B07DD0F4B0D
:10115C0000221A600E4B1B6801330D4A13600C4BB6
:10116C001B683B2B07DD0A4B00221A60094B1B68DE
:10117C000133084A1360074B1B68182B02D1054B2F
:10118C0000221A6000BFBD4680BC704720000020C2
:10119C001C0000201800002080B500AF00F0D6FA2B
:1011AC0000F074F800F0AEF800F0F8F82D4801F0FB
:1011BC0015FA0A2000F058F90A2000F06FF90A20FD
:1011CC0000F086F90A2000F09DF9274B1B68012BD3
:1011DC0013D1264B1B685A1C24490A601846FFF78A
:1011EC0051FF224B1A68224B1B689A4202D11F4BAB
:1011FC0000221A600A2000F085F91E4B1B68012B97
:10120C0013D11D4B1B685A1C1B490A601846FFF76B
:10121C0081F9194B1A68194B1B689A4202D1164B6B
:10122C0000221A60FA2000F053F9154B1B68012BB1
:10123C000BD11021134800F08BFDFFF77DFFFEF75B
:10124C007FFF4FF47A7000F029F90F4B1B68012BCC
:10125C00BBD120210B4800F07BFD4FF4FA6000F06D
:10126C0003F9B2E77800002074000020540000203D
:10127C00742D00086C00002050000020702D000818
:10128C0064000020000801405C00002080B590B094
:10129C0000AF07F1180328220021184601F04EFD7B
:1012AC003B1D00221A605A609A60DA601A610223B0
:1012BC00BB610123BB621023FB6200237B6307F13C
:1012CC001803184600F05EFD0346002B01D000F019
:1012DC00C5F80F237B600023BB600023FB60002359
:1012EC003B6100237B613B1D0021184600F0CAFFC7
:1012FC000346002B01D000F0B1F800BF4037BD46CB
:10130C0080BD000080B586B000AF07F10803002255
:10131C001A605A609A60DA603B4600221A605A6082
:10132C001D4B4FF080421A601B4B41F63F725A60C6
:10133C00194B00229A60184B0922DA60164B0022D6
:10134C001A61154B00229A61134801F0F7F8034615
:10135C00002B01D000F082F84FF48053BB6007F1F2
:10136C00080319460C4801F075FA0346002B01D00E
:10137C0000F074F800233B6000237B603B46194669
:10138C00054801F04DFC0346002B01D000F066F837
:10139C0000BF1837BD4680BD7800002080B586B0F0
:1013AC0000AF07F1080300221A605A609A60DA60F5
:1013BC00224B9B69214A43F0040393611F4B9B69A9
:1013CC0003F004037B607B681C4B9B691B4A43F056
:1013DC0008039361194B9B6903F008033B603B685E
:1013EC0001224FF6FC71164800F09AFC01224FF6D0
:1013FC007F71144800F094FC4FF6FC73BB60012322
:10140C00FB6000233B6102237B6107F10803194653
:10141C000B4800F00BFB4FF67F73BB600123FB60A6
:10142C0000233B6102237B6107F108031946054841
:10143C0000F0FCFA00BF1837BD4680BD001002401A
:10144C0000080140000C014080B582B000AF78600C
:10145C0000F072F800BF0837BD4680BD80B400AF05
:10146C0072B600BFFEE7000080B483B000AF7860B6
:10147C00074B1B687A6892FBF3F3064A1360064B22
:10148C0000221A6000BF0C37BD4680BC704700BFFD
:10149C0024000020580000205C00002080B483B0A1
:1014AC0000AF7860074B1B687A6892FBF3F3064A2F
:1014BC001360064B00221A6000BF0C37BD4680BC7F
:1014CC00704700BF24000020600000206400002052
:1014DC0080B483B000AF7860074B1B687A6892FBCE
:1014EC00F3F3064A1360064B00221A6000BF0C3758
:1014FC00BD4680BC704700BF24000020680000205F
:10150C006C00002080B483B000AF7860074B1B6880
:10151C007A6892FBF3F3064A1360064B00221A60BA
:10152C0000BF0C37BD4680BC704700BF24000020B4
:10153C00700000207400002080B400AF214B1B68A9
:10154C00002B0BDD1F4B1B68013B1E4A13601D4B10
:10155C001B68002B02D11C4B01221A601B4B1B6811
:10156C00002B0BDD194B1B68013B184A1360174B02
:10157C001B68002B02D1164B01221A60154B1B68FD
:10158C00002B0BDD134B1B68013B124A1360114BF4
:10159C001B68002B02D1104B01221A600F4B1B68E9
:1015AC00002B0BDD0D4B1B68013B0C4A13600B4BE6
:1015BC001B68002B02D10A4B01221A6000BFBD46EA
:1015CC0080BC7047580000205C00002060000020A8
:1015DC0064000020680000206C00002070000020D7
:1015EC007400002080B485B000AF154B9B69144A81
:1015FC0043F001039361124B9B6903F00103BB6041
:10160C00BB680F4BDB690E4A43F08053D3610C4B24
:10161C00DB6903F080537B607B680A4B5B68FB6083
:10162C00FB6823F0E063FB60FB6843F08063FB60C6
:10163C00044AFB68536000BF1437BD4680BC70473A
:10164C00001002400000014080B584B000AF78600B
:10165C007B681B68B3F1804F13D10C4BDB690B4AD1
:10166C0043F00103D361094BDB6903F00103FB6019
:10167C00FB68002200211C2000F0A1F91C2000F0C6
:10168C00BAF900BF1037BD4680BD00BF0010024044
:10169C0080B400AFFEE780B400AFFEE780B400AFCB
:1016AC00FEE780B400AFFEE780B400AFFEE780B485
:1016BC0000AF00BFBD4680BC704780B400AF00BF18
:1016CC00BD4680BC704780B400AF00BFBD4680BC37
:1016DC00704780B500AF00F07FF800BF80BD000000
:1016EC0080B500AF024800F0C5FF00BF80BD00BF51
:1016FC007800002080B400AF00BFBD4680BC7047AE
:10170C00FFF7F8FF0B480C490C4A002302E0D458B1
:10171C00C4500433C4188C42F9D3094A094C002331
:10172C0001E013600432A242FBD301F0E3FAFFF7AD
:10173C0033FD70470000002034000020A42D000869
:10174C0034000020C4000020FEE7000080B500AF8C
:10175C00084B1B68074A43F010031360032000F08A
:10176C0023F90F2000F008F8FFF73CFF0023184680
:10177C0080BD00BF0020024080B582B000AF786011
:10178C00124B1A68124B1B7819464FF47A73B3FB41
:10179C00F1F3B2FBF3F3184600F03BF90346002BD0
:1017AC0001D001230EE07B680F2B0AD80022796848
:1017BC004FF0FF3000F003F9064A7B6813600023FA
:1017CC0000E0012318460837BD4680BD28000020E4
:1017DC00300000202C00002080B400AF054B1B789B
:1017EC001A46054B1B681344034A136000BFBD46E1
:1017FC0080BC704730000020C000002080B400AFD7
:10180C00024B1B681846BD4680BC7047C0000020C8
:10181C0080B485B000AF78607B6803F00703FB6091
:10182C000C4BDB68BB60BA684FF6FF031340BB6020
:10183C00FB681A02BB68134343F0BF6343F40033E5
:10184C00BB60044ABB68D36000BF1437BD4680BC84
:10185C00704700BF00ED00E080B400AF044BDB68C4
:10186C001B0A03F007031846BD4680BC704700BF37
:10187C0000ED00E080B483B000AF0346FB7197F934
:10188C000730002B0BDBFB7903F01F02064997F99D
:10189C0007305B09012000FA02F241F8232000BF57
:1018AC000C37BD4680BC704700E100E080B483B0CB
:1018BC0000AF03463960FB7197F90730002B0ADB48
:1018CC003B68DAB20C4997F907301201D2B20B44DB
:1018DC0083F800230AE03B68DAB20849FB7903F08D
:1018EC000F03043B1201D2B20B441A7600BF0C3723
:1018FC00BD4680BC704700BF00E100E000ED00E099
:10190C0080B489B000AFF860B9607A60FB6803F00E
:10191C000703FB61FB69C3F10703042B28BF0423F6
:10192C00BB61FB690433062B02D9FB69033B00E066
:10193C0000237B614FF0FF32BB6902FA03F3DA43F9
:10194C00BB681A407B699A404FF0FF317B6901FA02
:10195C0003F3D9437B680B40134318462437BD4629
:10196C0080BC704780B582B000AF78607B68013B6B
:10197C00B3F1807F01D301230FE00A4A7B68013B5E
:10198C0053600F214FF0FF30FFF790FF054B002203
:10199C009A60044B07221A60002318460837BD468C
:1019AC0080BD00BF10E000E080B582B000AF786071
:1019BC007868FFF72DFF00BF0837BD4680BD80B5A6
:1019CC0086B000AF0346B9607A60FB7300237B617D
:1019DC00FFF742FF78617A68B9687869FFF790FF82
:1019EC00024697F90F3011461846FFF75FFF00BF0C
:1019FC001837BD4680BD80B582B000AF0346FB7181
:101A0C0097F907301846FFF735FF00BF0837BD467A
:101A1C0080BD80B582B000AF78607868FFF7A2FF18
:101A2C00034618460837BD4680BD000080B48BB015
:101A3C0000AF7860396000237B6200233B6248E191
:101A4C0001227B6A02FA03F3FB613B681B68FA69AB
:101A5C001340BB61BA69FB699A4240F037813B681D
:101A6C005B68A34A93425ED0A14A934275D8A14ABF
:101A7C00934258D09F4A93426FD89F4A934252D078
:101A8C009D4A934269D89D4A93424CD09B4A9342BB
:101A9C0063D89B4A934246D0994A93425DD8122B05
:101AAC002AD8122B59D801A252F823F0331B000864
:101ABC000D1B00081F1B0008611B0008671B00089A
:101ACC00671B0008671B0008671B0008671B0008E2
:101ADC00671B0008671B0008671B0008671B0008D2
:101AEC00671B0008671B0008671B0008671B0008C2
:101AFC00151B0008291B0008824A934213D02CE0C6
:101B0C003B68DB683B6229E03B68DB6804333B6283
:101B1C0024E03B68DB6808333B621FE03B68DB6812
:101B2C000C333B621AE03B689B68002B02D1042308
:101B3C003B6213E03B689B68012B05D108233B6299
:101B4C007B68FA691A6109E008233B627B68FA69D1
:101B5C005A6103E000233B6200E000BFBB69FF2B2E
:101B6C0001D87B6801E07B6804337B61BB69FF2B88
:101B7C0002D87B6A9B0002E07B6A083B9B003B61BE
:101B8C007B691A680F213B6901FA03F3DB431A40A6
:101B9C00396A3B6901FA03F31A437B691A603B68A3
:101BAC005B6803F08053002B00F09080564B9B69D0
:101BBC00554A43F001039361534B9B6903F00103B6
:101BCC00BB60BB68514A7B6A9B08023352F82330D6
:101BDC00FB607B6A03F003039B000F2202FA03F302
:101BEC00DB43FA681340FB607B68494A93420DD093
:101BFC007B68484A934207D07B68474A934201D19D
:101C0C00022304E0032302E0012300E000237A6AAC
:101C1C0002F0030292009340FA681343FB603B49C5
:101C2C007B6A9B080233FA6841F823203B685B68A7
:101C3C0003F48013002B06D0384B9A683749BB69E4
:101C4C0013438B6006E0354B9A68BB69DB43334921
:101C5C0013408B603B685B6803F40013002B06D0C9
:101C6C002E4BDA682D49BB691343CB6006E02B4B36
:101C7C00DA68BB69DB4329491340CB603B685B687E
:101C8C0003F40033002B06D0244B5A682349BB695C
:101C9C0013434B6006E0214B5A68BB69DB431F4979
:101CAC0013404B603B685B6803F48033002B06D019
:101CBC001A4B1A681949BB6913430B6006E0174BA2
:101CCC001A68BB69DB43154913400B607B6A01330F
:101CDC007B623B681A687B6A22FA03F3002B7FF461
:101CEC00AFAE00BF00BF2C37BD4680BC704700BFF5
:101CFC0000003210000031100000221000002110F2
:101D0C0000001210000011100010024000000140F1
:101D1C0000080140000C014000100140000401408B
:101D2C0080B483B000AF78600B467B8013467B7029
:101D3C007B78002B03D07A887B681A6103E07B8860
:101D4C001A047B681A6100BF0C37BD4680BC704713
:101D5C0080B485B000AF78600B467B807B68DB6815
:101D6C00FB607A88FB6813401A04FB68D9437B88B4
:101D7C000B401A437B681A6100BF1437BD4680BC08
:101D8C007047000080B586B000AF78607B68002B90
:101D9C0001D101236CE27B681B6803F00103002B6B
:101DAC0000F08780924B5B6803F00C03042B0CD083
:101DBC008F4B5B6803F00C03082B12D18C4B5B68C8
:101DCC0003F48033B3F5803F0BD1894B1B6803F4CC
:101DDC000033002B6CD07B685B68002B68D101232F
:101DEC0046E27B685B68B3F5803F06D1804B1B688D
:101DFC007F4A43F4803313602EE07B685B68002BD2
:101E0C000CD17B4B1B687A4A23F480331360784BDC
:101E1C001B68774A23F4802313601DE07B685B68A2
:101E2C00B3F5A02F0CD1724B1B68714A43F480237D
:101E3C0013606F4B1B686E4A43F4803313600BE0E6
:101E4C006B4B1B686A4A23F480331360684B1B6826
:101E5C00674A23F4802313607B685B68002B13D0E4
:101E6C00FFF7CCFC386108E0FFF7C8FC02463B6981
:101E7C00D31A642B01D90323FAE15D4B1B6803F4DD
:101E8C000033002BF0D014E0FFF7B8FC386108E009
:101E9C00FFF7B4FC02463B69D31A642B01D9032328
:101EAC00E6E1534B1B6803F40033002BF0D100E048
:101EBC0000BF7B681B6803F00203002B63D04C4B04
:101ECC005B6803F00C03002B0BD0494B5B6803F0F1
:101EDC000C03082B1CD1464B5B6803F48033002B9E
:101EEC0016D1434B1B6803F00203002B05D07B6813
:101EFC001B69012B01D00123BAE13D4B1B6823F078
:101F0C00F8027B685B69DB00394913430B603AE0EC
:101F1C007B681B69002B20D0364B01221A60FFF71F
:101F2C006DFC386108E0FFF769FC02463B69D31A87
:101F3C00022B01D903239BE12D4B1B6803F00203F9
:101F4C00002BF0D02A4B1B6823F0F8027B685B69EE
:101F5C00DB00274913430B6015E0264B00221A6067
:101F6C00FFF74CFC386108E0FFF748FC02463B6980
:101F7C00D31A022B01D903237AE11D4B1B6803F002
:101F8C000203002BF0D17B681B6803F00803002BC5
:101F9C003AD07B689B69002B19D0174B01221A6031
:101FAC00FFF72CFC386108E0FFF728FC02463B6980
:101FBC00D31A022B01D903235AE10D4B5B6A03F0B0
:101FCC000203002BF0D0012000F09AFA1CE00A4B1F
:101FDC0000221A60FFF712FC38610FE0FFF70EFCCD
:101FEC0002463B69D31A022B08D9032340E100BFF8
:101FFC000010024000004242800442429E4B5B6A49
:10200C0003F00203002BE9D17B681B6803F0040387
:10201C00002B00F0A6800023FB75974BDB6903F0C7
:10202C008053002B0DD1944BDB69934A43F08053C2
:10203C00D361914BDB6903F08053BB60BB68012318
:10204C00FB758E4B1B6803F48073002B18D18B4BE4
:10205C001B688A4A43F480731360FFF7CFFB386127
:10206C0008E0FFF7CBFB02463B69D31A642B01D97E
:10207C000323FDE0814B1B6803F48073002BF0D02D
:10208C007B68DB68012B06D17B4B1B6A7A4A43F0D9
:10209C00010313622DE07B68DB68002B0CD1764BBF
:1020AC001B6A754A23F001031362734B1B6A724A55
:1020BC0023F0040313621CE07B68DB68052B0CD156
:1020CC006D4B1B6A6C4A43F0040313626A4B1B6A28
:1020DC00694A43F0010313620BE0674B1B6A664AC3
:1020EC0023F001031362644B1B6A634A23F004035D
:1020FC0013627B68DB68002B15D0FFF77FFB386120
:10210C000AE0FFF77BFB02463B69D31A41F28832A7
:10211C00934201D90323ABE0574B1B6A03F0020334
:10212C00002BEED014E0FFF769FB38610AE0FFF7F3
:10213C0065FB02463B69D31A41F28832934201D9BE
:10214C00032395E04C4B1B6A03F00203002BEED1EA
:10215C00FB7D012B05D1484BDB69474A23F08053AB
:10216C00D3617B68DB69002B00F08180424B5B689C
:10217C0003F00C03082B61D07B68DB69022B46D182
:10218C003F4B00221A60FFF739FB386108E0FFF77C
:10219C0035FB02463B69D31A022B01D9032367E0B6
:1021AC00354B1B6803F00073002BF0D17B681B6A66
:1021BC00B3F5803F08D1304B5B6823F400327B6869
:1021CC009B682D4913434B602B4B5B6823F47412B3
:1021DC007B68196A7B685B6A0B43274913434B6026
:1021EC00274B01221A60FFF709FB386108E0FFF763
:1021FC0005FB02463B69D31A022B01D9032337E0B6
:10220C001D4B1B6803F00073002BF0D02FE01C4B10
:10221C0000221A60FFF7F2FA386108E0FFF7EEFAD5
:10222C0002463B69D31A022B01D9032320E0124B3F
:10223C001B6803F00073002BF0D118E07B68DB699E
:10224C00012B01D1012313E00B4B5B68FB60FB6896
:10225C0003F480327B681B6A9A4206D1FB6803F454
:10226C0070127B685B6A9A4201D0012300E0002364
:10227C0018461837BD4680BD001002400070004063
:10228C006000424280B584B000AF786039607B68F2
:10229C00002B01D10123D0E06A4B1B6803F007032C
:1022AC003A689A4210D9674B1B6823F007026549BC
:1022BC003B6813430B60634B1B6803F007033A68DE
:1022CC009A4201D00123B8E07B681B6803F002033B
:1022DC00002B20D07B681B6803F00403002B05D077
:1022EC00594B5B68584A43F4E06353607B681B6846
:1022FC0003F00803002B05D0534B5B68524A43F4A0
:10230C0060535360504B5B6823F0F0027B689B6812
:10231C004D4913434B607B681B6803F00103002B92
:10232C0040D07B685B68012B07D1474B1B6803F4DB
:10233C000033002B15D101237FE07B685B68022BF7
:10234C0007D1414B1B6803F00073002B09D101230B
:10235C0073E03D4B1B6803F00203002B01D10123FA
:10236C006BE0394B5B6823F003027B685B68364992
:10237C0013434B60FFF742FAF8600AE0FFF73EFAAE
:10238C000246FB68D31A41F28832934201D90323E7
:10239C0053E02D4B5B6803F00C027B685B689B0081
:1023AC009A42EBD1274B1B6803F007033A689A4219
:1023BC0010D2244B1B6823F0070222493B681343BD
:1023CC000B60204B1B6803F007033A689A4201D05C
:1023DC00012332E07B681B6803F00403002B08D058
:1023EC00194B5B6823F4E0627B68DB681649134386
:1023FC004B607B681B6803F00803002B09D0124B61
:10240C005B6823F460527B681B69DB000E49134345
:10241C004B6000F021F802460B4B5B681B0903F084
:10242C000F030A49CB5C22FA03F3094A1360094BE8
:10243C001B681846FFF7A0F9002318461037BD4655
:10244C0080BD00BF0020024000100240782D000823
:10245C00280000202C00002080B487B000AF00239F
:10246C00FB600023BB6000237B6100237B600023A7
:10247C003B611E4B5B68FB60FB6803F00C03042B99
:10248C0002D0082B03D027E0194B3B6127E0FB68F7
:10249C009B0C03F00F03174AD35C7B60FB6803F4BF
:1024AC008033002B10D0114B5B685B0C03F00103E5
:1024BC00114AD35CBB607B680D4A02FB03F2BB681C
:1024CC00B2FBF3F37B6104E07B680C4A02FB03F381
:1024DC007B617B693B6102E0054B3B6100BF3B6963
:1024EC0018461C37BD4680BC704700BF0010024028
:1024FC0000127A00882D0008982D000800093D0074
:10250C0080B485B000AF78600A4B1B680A4AA2FB06
:10251C0003235B0A7A6802FB03F3FB6000BFFB68D2
:10252C005A1EFA60002BF9D100BF00BF1437BD460C
:10253C0080BC704728000020D34D621080B582B05B
:10254C0000AF78607B68002B01D1012341E07B68F0
:10255C0093F83D30DBB2002B06D17B68002283F868
:10256C003C207868FFF770F87B68022283F83D20E6
:10257C007B681A687B6804331946104600F056FADB
:10258C007B68012283F846207B68012283F83E2079
:10259C007B68012283F83F207B68012283F840206E
:1025AC007B68012283F841207B68012283F842205A
:1025BC007B68012283F843207B68012283F8442046
:1025CC007B68012283F845207B68012283F83D203B
:1025DC00002318460837BD4680BD000080B485B086
:1025EC0000AF78607B6893F83D30DBB2012B01D0F3
:1025FC00012335E07B68022283F83D207B681B6851
:10260C00DA687B681B6842F00102DA607B681B6841
:10261C00164A934209D07B681B68B3F1804F04D0F3
:10262C007B681B68124A934211D17B681B689B68BC
:10263C0003F00703FB60FB68062B10D07B681B685C
:10264C001A687B681B6842F001021A6007E07B681D
:10265C001B681A687B681B6842F001021A60002331
:10266C0018461437BD4680BC704700BF002C014093
:10267C000004004080B584B000AF78607B681B68B4
:10268C00DB68FB607B681B681B69BB60BB6803F085
:10269C000203002B20D0FB6803F00203002B1BD09D
:1026AC007B681B686FF002021A617B6801221A7743
:1026BC007B681B689B6903F00303002B03D07868CD
:1026CC0000F098F905E0786800F08BF9786800F074
:1026DC009AF97B6800221A77BB6803F00403002B7D
:1026EC0020D0FB6803F00403002B1BD07B681B6815
:1026FC006FF004021A617B6802221A777B681B68F0
:10270C009B6903F44073002B03D0786800F072F9D6
:10271C0005E0786800F065F9786800F074F97B687A
:10272C0000221A77BB6803F00803002B20D0FB684B
:10273C0003F00803002B1BD07B681B686FF00802AA
:10274C001A617B6804221A777B681B68DB6903F0CB
:10275C000303002B03D0786800F04CF905E078688F
:10276C0000F03FF9786800F04EF97B6800221A7788
:10277C00BB6803F01003002B20D0FB6803F01003A0
:10278C00002B1BD07B681B686FF010021A617B68F2
:10279C0008221A777B681B68DB6903F44073002BF3
:1027AC0003D0786800F026F905E0786800F019F994
:1027BC00786800F028F97B6800221A77BB6803F070
:1027CC000103002B0CD0FB6803F00103002B07D096
:1027DC007B681B686FF001021A617868FEF734FEA3
:1027EC00BB6803F08003002B0CD0FB6803F0800364
:1027FC00002B07D07B681B686FF080021A61786829
:10280C0000F06FFABB6803F04003002B0CD0FB68A0
:10281C0003F04003002B07D07B681B686FF040026D
:10282C001A61786800F0F8F8BB6803F02003002BFD
:10283C000CD0FB6803F02003002B07D07B681B68CF
:10284C006FF020021A61786800F042FA00BF10376E
:10285C00BD4680BD80B584B000AF78603960002380
:10286C00FB737B6893F83C30012B01D10223B4E05D
:10287C007B68012283F83C207B68022283F83D2090
:10288C007B681B689B68BB60BB6823F07703BB60ED
:10289C00BB6823F47F43BB607B681B68BA689A6093
:1028AC003B681B68B3F5005F3ED0B3F5005F00F2E8
:1028BC008780B3F5805F00F08680B3F5805F7FD8AA
:1028CC00702B1AD0702B7BD8602B50D0602B77D804
:1028DC00502B3CD0502B73D8402B58D0402B6FD85A
:1028EC00302B64D0302B6BD8202B60D0202B67D8AA
:1028FC00002B5CD0102B5AD062E07B6818683B68C8
:10290C0099683B685A683B68DB6800F06AF97B6839
:10291C001B689B68BB60BB6843F07703BB607B683C
:10292C001B68BA689A604FE07B6818683B689968C6
:10293C003B685A683B68DB6800F053F97B681B689E
:10294C009A687B681B6842F480429A603CE07B6822
:10295C0018683B6859683B68DB681A4600F0CAF88F
:10296C007B681B685021184600F021F92CE07B682D
:10297C0018683B6859683B68DB681A4600F0E8F851
:10298C007B681B686021184600F011F91CE07B681D
:10299C0018683B6859683B68DB681A4600F0AAF86F
:1029AC007B681B684021184600F001F90CE07B683D
:1029BC001A683B681B681946104600F0F8F803E0EB
:1029CC000123FB7300E000BF7B68012283F83D20EC
:1029DC007B68002283F83C20FB7B18461037BD46F1
:1029EC0080BD80B483B000AF786000BF0C37BD46AB
:1029FC0080BC704780B483B000AF786000BF0C37E8
:102A0C00BD4680BC704780B483B000AF786000BF17
:102A1C000C37BD4680BC704780B483B000AF786083
:102A2C0000BF0C37BD4680BC7047000080B485B039
:102A3C0000AF786039607B681B68FB607B682B4A51
:102A4C00934207D07B68B3F1804F03D07B68284A50
:102A5C00934208D1FB6823F07003FB603B685B6812
:102A6C00FA681343FB607B68204A934207D07B686B
:102A7C00B3F1804F03D07B681D4A934208D1FB68A9
:102A8C0023F44073FB603B68DB68FA681343FB601C
:102A9C00FB6823F080023B685B691343FB607B6837
:102AAC00FA681A603B689A687B68DA623B681A6855
:102ABC007B689A627B680D4A934203D13B681A6922
:102ACC007B681A637B6801225A617B681B6903F07F
:102ADC000103002B05D07B681B6923F001027B6886
:102AEC001A6100BF1437BD4680BC7047002C0140F2
:102AFC000004004080B487B000AFF860B9607A6021
:102B0C00FB681B6A7B61FB681B6A23F00102FB6894
:102B1C001A62FB689B693B613B6923F0F0033B61E4
:102B2C007B681B013A6913433B617B6923F00A0301
:102B3C007B617A69BB6813437B61FB683A699A6174
:102B4C00FB687A691A6200BF1C37BD4680BC7047AF
:102B5C0080B487B000AFF860B9607A60FB681B6A1C
:102B6C007B61FB681B6A23F01002FB681A62FB682E
:102B7C009B693B613B6923F470433B617B681B039E
:102B8C003A6913433B617B6923F0A0037B61BB680B
:102B9C001B017A6913437B61FB683A699A61FB6894
:102BAC007A691A6200BF1C37BD4680BC704780B47E
:102BBC0085B000AF786039607B689B68FB60FB6810
:102BCC0023F07003FB603A68FB68134343F0070380
:102BDC00FB607B68FA689A6000BF1437BD4680BC06
:102BEC00704780B487B000AFF860B9607A603B6022
:102BFC00FB689B687B617B6923F47F437B613B684B
:102C0C001A027B681A43BB6813437A6913437B61CE
:102C1C00FB687A699A6000BF1C37BD4680BC704760
:102C2C0080B485B000AF786039607B6893F83C3035
:102C3C00012B01D1022341E07B68012283F83C2067
:102C4C007B68022283F83D207B681B685B68FB6015
:102C5C007B681B689B68BB60FB6823F07003FB60A0
:102C6C003B681B68FA681343FB607B681B68FA6857
:102C7C005A607B681B68144A934209D07B681B68B6
:102C8C00B3F1804F04D07B681B68104A93420CD17F
:102C9C00BB6823F08003BB603B685B68BA68134376
:102CAC00BB607B681B68BA689A607B68012283F8FA
:102CBC003D207B68002283F83C2000231846143703
:102CCC00BD4680BC704700BF002C01400004004092
:102CDC0080B483B000AF786000BF0C37BD4680BCB9
:102CEC00704780B483B000AF786000BF0C37BD462E
:102CFC0080BC704770B500260C4D0D4C641BA410A5
:102D0C00A64209D100F022F800260A4D0A4C641B99
:102D1C00A410A64205D170BD55F8043B9847013666
:102D2C00EEE755F8043B98470136F2E79C2D000876
:102D3C009C2D00089C2D0008A02D00080346024481
:102D4C00934200D1704703F8011BF9E7F8B500BFB7
:102D5C00F8BC08BC9E467047F8B500BFF8BC08BC70
:042D6C009E467047C8
:102D70000400000008000000000000000000000047
:102D800001020304060708090203040506070809EF
:0C2D90000A0B0C0D0E0F101001020000C9
:042D9C0031010008F9
:042DA0000D01000819
:102DA4000100000002000000030000000400000015
:102DB400C381183C00003C3C0F00000008000000E8
:102DC400320000000A00000000127A001000000027
:042DD40001000000FA
:040000050800170DCB
:00000001FF
