:020000040800F2
:100000000028002075180008051800080B180008C3
:1000100011180008171800081D180008000000003B
:10002000000000000000000000000000231800088D
:100030002F180008000000003B18000847180008AF
:10004000BD180008BD180008BD180008BD1800083C
:10005000BD180008BD180008BD180008BD1800082C
:10006000BD180008BD180008BD180008BD1800081C
:10007000BD180008BD180008BD180008BD1800080C
:10008000BD180008BD180008BD180008BD180008FC
:10009000BD180008BD180008BD180008BD180008EC
:1000A000BD180008BD180008BD180008BD180008DC
:1000B00055180008BD18000800000000BD18000811
:1000C000BD1800080000000000000000BD18000876
:1000D00000000000BD180008BD1800080000000066
:1000E000BD180008BD180008BD1800080000000079
:1000F0000000000000000000000000000000000000
:0C01000000000000000000005FF808F1A3
:10010C0010B5054C237833B9044B13B10448AFF345
:10011C0000800123237010BD34000020000000007B
:10012C00C02E000808B5034B1BB103490348AFF3BD
:10013C00008008BD0000000038000020C02E000820
:10014C0080B400AF274B1B680933122B07D8264B02
:10015C0000221A60234B1B68234A536018E0214B82
:10016C001B68224A82FB03129210DB17D31A1E4A19
:10017C0013601C4B19681D4B83FB01239A10CB1782
:10018C00D21A13469B0013445B00CA1A164B5A60D2
:10019C00174B1B680933122B07D8134B00229A609C
:1001AC00134B1B68104AD36018E0114B1B680F4AA5
:1001BC0082FB03129210DB17D31A0B4A93600C4B81
:1001CC0019680A4B83FB01239A10CB17D21A1346DA
:1001DC009B0013445B00CA1A034BDA6000BFBD4698
:1001EC0080BC70471800002000000020676666661F
:1001FC001C00002080B582B000AF78607B68092BB2
:10020C0000F2808101A252F823F000BF41020008E5
:10021C0089020008D10200081903000861030008D4
:10022C00A9030008F1030008390400088104000840
:10023C00C904000800220121B54801F025FE002266
:10024C000221B34801F020FE00220421B04801F045
:10025C001BFE00220821AE4801F016FE00221021E0
:10026C00AB4801F011FE00222021A94801F00CFE40
:10027C0001224021A64801F007FE44E101220121A0
:10028C00A34801F001FE00220221A14801F0FCFD6F
:10029C00002204219E4801F0F7FD012208219C4810
:1002AC0001F0F2FD01221021994801F0EDFD01222F
:1002BC002021974801F0E8FD01224021944801F0EB
:1002CC00E3FD20E100220121914801F0DDFD002237
:1002DC0002218F4801F0D8FD012204218C4801F045
:1002EC00D3FD002208218A4801F0CEFD0022102106
:1002FC00874801F0C9FD01222021854801F0C4FD89
:10030C0000224021824801F0BFFDFCE000220121C7
:10031C007F4801F0B9FD002202217D4801F0B4FDB7
:10032C00002204217A4801F0AFFD00220821784810
:10033C0001F0AAFD01221021754801F0A5FD012252
:10034C002021734801F0A0FD00224021704801F0EB
:10035C009BFDD8E0012201216D4801F095FD0022A2
:10036C0002216B4801F090FD00220421684801F045
:10037C008BFD01220821664801F086FD0122102127
:10038C00634801F081FD00222021614801F07CFDD1
:10039C00002240215E4801F077FDB4E000220121EB
:1003AC005B4801F071FD01220221594801F06CFDFE
:1003BC0000220421564801F067FD00220821544810
:1003CC0001F062FD01221021514801F05DFD002277
:1003DC0020214F4801F058FD002240214C4801F0EB
:1003EC0053FD90E000220121494801F04DFD01220E
:1003FC000221474801F048FD00220421444801F045
:10040C0043FD00220821424801F03EFD002210214C
:10041C003F4801F039FD002220213D4801F034FD18
:10042C00002240213A4801F02FFD6CE0002201210E
:10043C00374801F029FD00220221354801F024FD46
:10044C0000220421324801F01FFD0122082130480E
:10045C0001F01AFD012210212D4801F015FD012299
:10046C0020212B4801F010FD01224021284801F0E9
:10047C000BFD48E000220121254801F005FD00227A
:10048C000221234801F000FD00220421204801F044
:10049C00FBFC002208211E4801F0F6FC0022102172
:1004AC001B4801F0F1FC00222021194801F0ECFC62
:1004BC0000224021164801F0E7FC24E00022012133
:1004CC00134801F0E1FC00220221114801F0DCFC90
:1004DC00002204210E4801F0D7FC002208210C4810
:1004EC0001F0D2FC01221021094801F0CDFC0022C0
:1004FC002021074801F0C8FC00224021044801F0EB
:10050C00C3FC00E000BF00BF0837BD4680BD00BF84
:10051C00000C014080B582B000AF78607B68032B83
:10052C007AD801A252F823F0450500087D05000891
:10053C00B5050008ED05000800224021394801F0FE
:10054C00A3FC01228021374801F09EFC01224FF4CC
:10055C008071344801F098FC01224FF4007131484D
:10056C0001F092FC304B1B681846FFF743FE54E039
:10057C00012240212B4801F087FC002280212948D0
:10058C0001F082FC01224FF48071264801F07CFCC2
:10059C0001224FF40071234801F076FC224B5B687A
:1005AC001846FFF727FE38E0012240211D4801F0D4
:1005BC006BFC012280211B4801F066FC00224FF4E9
:1005CC008071184801F060FC01224FF4007115484D
:1005DC0001F05AFC144B9B681846FFF70BFE1CE00D
:1005EC00012240210F4801F04FFC012280210D48CF
:1005FC0001F04AFC01224FF480710A4801F044FCDE
:10060C0000224FF40071074801F03EFC064BDB68FA
:10061C001846FFF7EFFD00E000BF00BF0837BD46EE
:10062C0080BD00BF000801400000002080B582B0F2
:10063C0000AF786039607B68072B00F2198501A246
:10064C0052F823F071060008B1070008F9080008F9
:10065C00370A00087D0B0008BB0C0008010E0008CF
:10066C003F0F000800224FF480719E4801F00CFCF3
:10067C0001224FF400719B4801F006FC01224FF45B
:10068C008061984801F000FC01224FF4006195480C
:10069C0001F0FAFB01224FF48051924801F0F4FB77
:1006AC0001224FF400518F4801F0EEFB01224FF470
:1006BC0080418C4801F0E8FB01224FF4004189484D
:1006CC0001F0E2FB3B68DBB203F00103DBB21A463C
:1006DC000421854801F0D8FB3B685B103B603B680C
:1006EC00DBB203F00103DBB21A4608217E4801F0AD
:1006FC00CBFB3B685B103B603B68DBB203F0010358
:10070C00DBB21A464FF48061774801F0BDFB3B68C1
:10071C005B103B603B68DBB203F00103DBB21A46B3
:10072C004FF40061704801F0AFFB3B685B103B601D
:10073C003B68DBB203F00103DBB21A464FF4805185
:10074C00694801F0A1FB3B685B103B603B68DBB286
:10075C0003F00103DBB21A464FF40051624801F07A
:10076C0093FB3B685B103B603B68DBB203F001031F
:10077C00DBB21A464FF480415B4801F085FB3B68C5
:10078C005B103B603B68DBB203F00103DBB21A4643
:10079C004FF40041544801F077FB3B685B103B6021
:1007AC0000F067BC01224FF480714E4801F06CFBE5
:1007BC0000224FF400714B4801F066FB01224FF40C
:1007CC008061484801F060FB01224FF4006145480C
:1007DC0001F05AFB01224FF48051424801F054FBC6
:1007EC0001224FF400513F4801F04EFB01224FF41F
:1007FC0080413C4801F048FB01224FF4004139484C
:10080C0001F042FB3B68DBB203F00103DBB21A469A
:10081C000421354801F038FB3B685B103B603B68BA
:10082C00DBB203F00103DBB21A4608212E4801F0BB
:10083C002BFB3B685B103B603B68DBB203F00103B6
:10084C00DBB21A464FF48061274801F01DFB3B6870
:10085C005B103B603B68DBB203F00103DBB21A4672
:10086C004FF40061204801F00FFB3B685B103B60CC
:10087C003B68DBB203F00103DBB21A464FF4805144
:10088C00194801F001FB3B685B103B603B68DBB235
:10089C0003F00103DBB21A464FF40051124801F089
:1008AC00F3FA3B685B103B603B68DBB203F001037F
:1008BC00DBB21A464FF480410B4801F0E5FA3B6875
:1008CC005B103B603B68DBB203F00103DBB21A4602
:1008DC004FF40041044801F0D7FA3B685B103B60D1
:1008EC00C7E300BF000C01400008014001224FF497
:1008FC0080719D4801F0C8FA01224FF400719A48AA
:10090C0001F0C2FA00224FF48061974801F0BCFA62
:10091C0001224FF40061944801F0B6FA01224FF421
:10092C008051914801F0B0FA01224FF400518E48E9
:10093C0001F0AAFA01224FF480418B4801F0A4FA8D
:10094C0001224FF40041884801F09EFA3B68DBB26B
:10095C0003F00103DBB21A460421844801F094FA37
:10096C003B685B103B603B68DBB203F00103DBB21E
:10097C001A4608217D4801F087FA3B685B103B6002
:10098C003B68DBB203F00103DBB21A464FF4806123
:10099C00764801F079FA3B685B103B603B68DBB250
:1009AC0003F00103DBB21A464FF400616F4801F00B
:1009BC006BFA3B685B103B603B68DBB203F00103F6
:1009CC00DBB21A464FF48051684801F05DFA3B687F
:1009DC005B103B603B68DBB203F00103DBB21A46F1
:1009EC004FF40051614801F04FFA3B685B103B60DB
:1009FC003B68DBB203F00103DBB21A464FF48041D3
:100A0C005A4801F041FA3B685B103B603B68DBB233
:100A1C0003F00103DBB21A464FF40041534801F0D6
:100A2C0033FA3B685B103B6023E301224FF4807187
:100A3C004D4801F029FA01224FF400714A4801F0A7
:100A4C0023FA01224FF48061474801F01DFA00227D
:100A5C004FF40061444801F017FA01224FF4805121
:100A6C00414801F011FA01224FF400513E4801F0C7
:100A7C000BFA01224FF480413B4801F005FA0122A8
:100A8C004FF40041384801F0FFF93B68DBB203F04A
:100A9C000103DBB21A460421344801F0F5F93B6836
:100AAC005B103B603B68DBB203F00103DBB21A4620
:100ABC0008212E4801F0E8F93B685B103B603B686D
:100ACC00DBB203F00103DBB21A464FF48061274816
:100ADC0001F0DAF93B685B103B603B68DBB203F07A
:100AEC000103DBB21A464FF40061204801F0CCF947
:100AFC003B685B103B603B68DBB203F00103DBB28D
:100B0C001A464FF48051194801F0BEF93B685B104E
:100B1C003B603B68DBB203F00103DBB21A464FF4D7
:100B2C000051124801F0B0F93B685B103B603B6828
:100B3C00DBB203F00103DBB21A464FF480410B48E1
:100B4C0001F0A2F93B685B103B603B68DBB203F041
:100B5C000103DBB21A464FF40041044801F094F94A
:100B6C003B685B103B6084E2000C014000080140D4
:100B7C0001224FF480719D4801F086F901224FF457
:100B8C0000719A4801F080F901224FF48061974876
:100B9C0001F07AF901224FF40061944801F074F9E4
:100BAC0000224FF48051914801F06EF901224FF46C
:100BBC0000518E4801F068F901224FF480418B48B6
:100BCC0001F062F901224FF40041884801F05CF910
:100BDC003B68DBB203F00103DBB21A460421844804
:100BEC0001F052F93B685B103B603B68DBB203F0F1
:100BFC000103DBB21A4608217D4801F045F93B6838
:100C0C005B103B603B68DBB203F00103DBB21A46BE
:100C1C004FF48061764801F037F93B685B103B601C
:100C2C003B68DBB203F00103DBB21A464FF4006100
:100C3C006F4801F029F93B685B103B603B68DBB205
:100C4C0003F00103DBB21A464FF48051684801F0FF
:100C5C001BF93B685B103B603B68DBB203F00103A4
:100C6C00DBB21A464FF40051614801F00DF93B68B4
:100C7C005B103B603B68DBB203F00103DBB21A464E
:100C8C004FF480415A4801F0FFF83B685B103B6021
:100C9C003B68DBB203F00103DBB21A464FF40041B0
:100CAC00534801F0F1F83B685B103B60E1E1012235
:100CBC004FF480714D4801F0E7F801224FF40071B8
:100CCC004A4801F0E1F801224FF48061474801F0F5
:100CDC00DBF801224FF40061444801F0D5F8012201
:100CEC004FF48051414801F0CFF800224FF40051ED
:100CFC003E4801F0C9F801224FF480413B4801F015
:100D0C00C3F801224FF40041384801F0BDF83B68AC
:100D1C00DBB203F00103DBB21A460421344801F0C4
:100D2C00B3F83B685B103B603B68DBB203F001033C
:100D3C00DBB21A4608212E4801F0A6F83B685B107E
:100D4C003B603B68DBB203F00103DBB21A464FF4A5
:100D5C008061274801F098F83B685B103B603B686A
:100D6C00DBB203F00103DBB21A464FF400612048FA
:100D7C0001F08AF83B685B103B603B68DBB203F028
:100D8C000103DBB21A464FF48051194801F07CF88C
:100D9C003B685B103B603B68DBB203F00103DBB2EA
:100DAC001A464FF40051124801F06EF83B685B1084
:100DBC003B603B68DBB203F00103DBB21A464FF435
:100DCC0080410B4801F060F83B685B103B603B686E
:100DDC00DBB203F00103DBB21A464FF400410448C6
:100DEC0001F052F83B685B103B6042E1000C0140A3
:100DFC000008014001224FF48071A04801F044F832
:100E0C0001224FF400719D4801F03EF801224FF48D
:100E1C0080619A4801F038F801224FF4006197483C
:100E2C0001F032F801224FF48051944801F02CF873
:100E3C0001224FF40051914801F026F800224FF4A2
:100E4C0080418E4801F020F801224FF400418B487C
:100E5C0001F01AF83B68DBB203F00103DBB21A466F
:100E6C000421874801F010F83B685B103B603B683D
:100E7C00DBB203F00103DBB21A460821804801F013
:100E8C0003F83B685B103B603B68DBB203F001038B
:100E9C00DBB21A464FF48061794800F0F5FF3B68ED
:100EAC005B103B603B68DBB203F00103DBB21A461C
:100EBC004FF40061724800F0E7FF3B685B103B6049
:100ECC003B68DBB203F00103DBB21A464FF48051EE
:100EDC006B4800F0D9FF3B685B103B603B68DBB2B2
:100EEC0003F00103DBB21A464FF40051644800F0E2
:100EFC00CBFF3B685B103B603B68DBB203F001034C
:100F0C00DBB21A464FF480415D4800F0BDFF3B68F0
:100F1C005B103B603B68DBB203F00103DBB21A46AB
:100F2C004FF40041564800F0AFFF3B685B103B604C
:100F3C009FE001224FF48071504800F0A5FF012280
:100F4C004FF400714D4800F09FFF01224FF4806177
:100F5C004A4800F099FF01224FF40061474800F025
:100F6C0093FF01224FF48051444800F08DFF012281
:100F7C004FF40051414800F087FF01224FF48041AB
:100F8C003E4800F081FF00224FF400413B4800F046
:100F9C007BFF3B68DBB203F00103DBB21A46042192
:100FAC00374800F071FF3B685B103B603B68DBB27D
:100FBC0003F00103DBB21A460821314800F064FF4C
:100FCC003B685B103B603B68DBB203F00103DBB2B8
:100FDC001A464FF480612A4800F056FF3B685B10BC
:100FEC003B603B68DBB203F00103DBB21A464FF403
:100FFC000061234800F048FF3B685B103B603B6896
:10100C00DBB203F00103DBB21A464FF480511C48EB
:10101C0000F03AFF3B685B103B603B68DBB203F0CF
:10102C000103DBB21A464FF40051154800F02CFFB7
:10103C003B685B103B603B68DBB203F00103DBB247
:10104C001A464FF480410E4800F01EFF3B685B10BF
:10105C003B603B68DBB203F00103DBB21A464FF492
:10106C000041074800F010FF3B685B103B6000E05C
:10107C0000BF00BF0837BD4680BD00BF000C01405B
:10108C000008014080B582B000AF78607B68072B08
:10109C004AD801A252F823F0C5100008D31000085A
:1010AC00E1100008EF100008FD1000080B110008FB
:1010BC0019110008271100081E4B1B781946002037
:1010CC00FFF7B4FA31E01B4B5B7819460120FFF7B0
:1010DC00ADFA2AE0174B9B7819460220FFF7A6FAC7
:1010EC0023E0144BDB7819460320FFF79FFA1CE032
:1010FC00104B1B7919460420FFF798FA15E00D4B9D
:10110C005B7919460520FFF791FA0EE0094B9B79A4
:10111C0019460620FFF78AFA07E0064BDB791946D9
:10112C000720FFF783FA00E000BF00BF0837BD4679
:10113C0080BD00BF1000002080B400AF394B1B787D
:10114C00DB015AB2374B1B785B08DBB25BB2134343
:10115C005BB2DAB2334B1A70324B5B78DB015AB2AA
:10116C00304B5B785B08DBB25BB213435BB2DAB239
:10117C002C4B5A702B4B9B78DB015AB2294B9B782A
:10118C005B08DBB25BB213435BB2DAB2254B9A70ED
:10119C00244BDB78DB015AB2224BDB785B08DBB2E9
:1011AC005BB213435BB2DAB21E4BDA701D4B1B7988
:1011BC00DB015AB21B4B1B795B08DBB25BB21343EE
:1011CC005BB2DAB2174B1A71164B5B79DB015AB270
:1011DC00144B5B795B08DBB25BB213435BB2DAB2E4
:1011EC00104B5A710F4B9B79DB015AB20D4B9B790B
:1011FC005B08DBB25BB213435BB2DAB2094B9A7198
:10120C00084BDB79DB015AB2064BDB795B08DBB2AE
:10121C005BB213435BB2DAB2024BDA7100BFBD466C
:10122C0080BC70471000002080B400AF134B1B68CB
:10123C000133124A1360114B1B683B2B07DD0F4B1C
:10124C0000221A600E4B1B6801330D4A13600C4BC5
:10125C001B683B2B07DD0A4B00221A60094B1B68ED
:10126C000133084A1360074B1B68182B02D1054B3E
:10127C0000221A6000BFBD4680BC704720000020D1
:10128C001C0000201800002080B500AF00F012FBFD
:10129C0000F082F800F0BCF800F006F9334801F0D9
:1012AC0051FA0A2000F066F90A2000F07DF90A20B4
:1012BC0000F094F90A2000F0ABF90A2000F0C2F912
:1012CC002B4B1B68012B04D1FFF736FF642000F079
:1012DC00B9F9284B1B68012B13D1274B1B685A1CDF
:1012EC0025490A601846FFF7CDFE234B1A68234B9D
:1012FC001B689A4202D1204B00221A600A2000F08F
:10130C0087F91F4B1B68012B13D11E4B1B685A1CF2
:10131C001C490A601846FFF7FDF81A4B1A681A4B5D
:10132C001B689A4202D1174B00221A60FA2000F077
:10133C0055F9164B1B68012B0BD11021144800F0EA
:10134C00BBFDFFF771FFFEF7FBFE4FF47A7000F068
:10135C002BF9104B1B68012BB2D120210C4800F04B
:10136C00ABFD4FF4FA6000F005F9A9E7800000200E
:10137C007C0000207400002054000020DC2E0008AB
:10138C006C00002050000020D82E000864000020C3
:10139C00000801405C00002080B590B000AF07F160
:1013AC00180328220021184601F07CFD3B1D002269
:1013BC001A605A609A60DA601A610223BB610123D9
:1013CC00BB621023FB6200237B6307F118031846F2
:1013DC0000F08CFD0346002B01D000F0C5F80F2364
:1013EC007B600023BB600023FB6000233B61002378
:1013FC007B613B1D0021184600F0F8FF0346002BD3
:10140C0001D000F0B1F800BF4037BD4680BD0000F0
:10141C0080B586B000AF07F1080300221A605A604D
:10142C009A60DA603B4600221A605A601D4B4FF0FE
:10143C0080421A601B4B41F63F725A60194B0022D6
:10144C009A60184B0922DA60164B00221A61154B70
:10145C0000229A61134801F025F90346002B01D0B4
:10146C0000F082F84FF48053BB6007F10803194673
:10147C000C4801F0A3FA0346002B01D000F074F8DD
:10148C0000233B6000237B603B461946054801F076
:10149C007BFC0346002B01D000F066F800BF183728
:1014AC00BD4680BD8000002080B586B000AF07F13E
:1014BC00080300221A605A609A60DA60224B9B691A
:1014CC00214A43F0040393611F4B9B6903F004030F
:1014DC007B607B681C4B9B691B4A43F00803936140
:1014EC00194B9B6903F008033B603B6801224FF6E4
:1014FC00FC71164800F0C8FC01224FF67F711448AD
:10150C0000F0C2FC4FF6FC73BB600123FB600023B0
:10151C003B6102237B6107F1080319460B4800F07D
:10152C0039FB4FF67F73BB600123FB6000233B61EB
:10153C0002237B6107F108031946054800F02AFBDA
:10154C0000BF1837BD4680BD0010024000080140A6
:10155C00000C014080B582B000AF786000F08CF8D0
:10156C0000BF0837BD4680BD80B400AF72B600BF67
:10157C00FEE7000080B483B000AF7860074B1B68B7
:10158C007A6892FBF3F3064A1360064B00221A604A
:10159C0000BF0C37BD4680BC704700BF2400002044
:1015AC00580000205C00002080B483B000AF78604D
:1015BC00074B1B687A6892FBF3F3064A1360064BE1
:1015CC0000221A6000BF0C37BD4680BC704700BFBC
:1015DC0024000020600000206400002080B483B050
:1015EC0000AF7860074B1B687A6892FBF3F3064AEE
:1015FC001360064B00221A6000BF0C37BD4680BC3E
:10160C00704700BF24000020680000206C00002000
:10161C0080B483B000AF7860074B1B687A6892FB8C
:10162C00F3F3064A1360064B00221A6000BF0C3716
:10163C00BD4680BC704700BF240000207000002015
:10164C007400002080B483B000AF7860074B1B6837
:10165C007A6892FBF3F3064A1360064B00221A6079
:10166C0000BF0C37BD4680BC704700BF2400002073
:10167C00780000207C00002080B400AF294B1B6850
:10168C00002B0BDD274B1B68013B264A1360254BB7
:10169C001B68002B02D1244B01221A60234B1B68C0
:1016AC00002B0BDD214B1B68013B204A13601F4BA9
:1016BC001B68002B02D11E4B01221A601D4B1B68AC
:1016CC00002B0BDD1B4B1B68013B1A4A1360194B9B
:1016DC001B68002B02D1184B01221A60174B1B6898
:1016EC00002B0BDD154B1B68013B144A1360134B8D
:1016FC001B68002B02D1124B01221A60114B1B6884
:10170C00002B0BDD0F4B1B68013B0E4A13600D4B7E
:10171C001B68002B02D10C4B01221A6000BFBD4686
:10172C0080BC7047580000205C0000206000002046
:10173C0064000020680000206C0000207000002075
:10174C0074000020780000207C00002080B485B05C
:10175C0000AF154B9B69144A43F001039361124B84
:10176C009B6903F00103BB60BB680F4BDB690E4A3E
:10177C0043F08053D3610C4BDB6903F080537B60E7
:10178C007B680A4B5B68FB60FB6823F0E063FB60E3
:10179C00FB6843F08063FB60044AFB68536000BF46
:1017AC001437BD4680BC7047001002400000014059
:1017BC0080B584B000AF78607B681B68B3F1804F54
:1017CC0013D10C4BDB690B4A43F00103D361094B7A
:1017DC00DB6903F00103FB60FB68002200211C2085
:1017EC0000F0A1F91C2000F0BAF900BF1037BD467B
:1017FC0080BD00BF0010024080B400AFFEE780B493
:10180C0000AFFEE780B400AFFEE780B400AFFEE7A8
:10181C0080B400AFFEE780B400AF00BFBD4680BC13
:10182C00704780B400AF00BFBD4680BC704780B429
:10183C0000AF00BFBD4680BC704780B500AF00F064
:10184C007FF800BF80BD000080B500AF024800F0FB
:10185C00C5FF00BF80BD00BF8000002080B400AF7A
:10186C0000BFBD4680BC7047FFF7F8FF0B480C4922
:10187C000C4A002302E0D458C4500433C4188C42E0
:10188C00F9D3094A094C002301E013600432A24247
:10189C00FBD301F0E3FAFFF7F7FC704700000020E0
:1018AC00340000200C2F000834000020CC00002055
:1018BC00FEE7000080B500AF084B1B68074A43F0F9
:1018CC0010031360032000F023F90F2000F008F838
:1018DC00FFF73CFF0023184680BD00BF00200240EC
:1018EC0080B582B000AF7860124B1A68124B1B782F
:1018FC0019464FF47A73B3FBF1F3B2FBF3F31846CA
:10190C0000F03BF90346002B01D001230EE07B686D
:10191C000F2B0AD8002279684FF0FF3000F003F942
:10192C00064A7B681360002300E001231846083741
:10193C00BD4680BD28000020300000202C00002077
:10194C0080B400AF054B1B781A46054B1B6813443B
:10195C00034A136000BFBD4680BC704730000020B6
:10196C00C800002080B400AF024B1B681846BD466F
:10197C0080BC7047C800002080B485B000AF786090
:10198C007B6803F00703FB600C4BDB68BB60BA6839
:10199C004FF6FF031340BB60FB681A02BB6813438E
:1019AC0043F0BF6343F40033BB60044ABB68D360AD
:1019BC0000BF1437BD4680BC704700BF00ED00E08F
:1019CC0080B400AF044BDB681B0A03F00703184616
:1019DC00BD4680BC704700BF00ED00E080B483B012
:1019EC0000AF0346FB7197F90730002B0BDBFB793B
:1019FC0003F01F02064997F907305B09012000FA32
:101A0C0002F241F8232000BF0C37BD4680BC704762
:101A1C0000E100E080B483B000AF03463960FB7195
:101A2C0097F90730002B0ADB3B68DAB20C4997F9BF
:101A3C0007301201D2B20B4483F800230AE03B6852
:101A4C00DAB20849FB7903F00F03043B1201D2B25E
:101A5C000B441A7600BF0C37BD4680BC704700BFE4
:101A6C0000E100E000ED00E080B489B000AFF86068
:101A7C00B9607A60FB6803F00703FB61FB69C3F193
:101A8C000703042B28BF0423BB61FB690433062B1B
:101A9C0002D9FB69033B00E000237B614FF0FF326E
:101AAC00BB6902FA03F3DA43BB681A407B699A40BC
:101ABC004FF0FF317B6901FA03F3D9437B680B408C
:101ACC00134318462437BD4680BC704780B582B09E
:101ADC0000AF78607B68013BB3F1807F01D30123B9
:101AEC000FE00A4A7B68013B53600F214FF0FF3037
:101AFC00FFF790FF054B00229A60044B07221A60F7
:101B0C00002318460837BD4680BD00BF10E000E03A
:101B1C0080B582B000AF78607868FFF72DFF00BF0A
:101B2C000837BD4680BD80B586B000AF0346B960AE
:101B3C007A60FB7300237B61FFF742FF78617A6860
:101B4C00B9687869FFF790FF024697F90F30114694
:101B5C001846FFF75FFF00BF1837BD4680BD80B544
:101B6C0082B000AF0346FB7197F907301846FFF7B8
:101B7C0035FF00BF0837BD4680BD80B582B000AFD1
:101B8C0078607868FFF7A2FF034618460837BD4611
:101B9C0080BD000080B48BB000AF7860396000234A
:101BAC007B6200233B6248E101227B6A02FA03F369
:101BBC00FB613B681B68FA691340BB61BA69FB693E
:101BCC009A4240F037813B685B68A34A93425ED0EF
:101BDC00A14A934275D8A14A934258D09F4A934246
:101BEC006FD89F4A934252D09D4A934269D89D4ADE
:101BFC0093424CD09B4A934263D89B4A934246D023
:101C0C00994A93425DD8122B2AD8122B59D801A28B
:101C1C0052F823F09B1C0008751C0008871C000858
:101C2C00C91C0008CF1C0008CF1C0008CF1C0008E2
:101C3C00CF1C0008CF1C0008CF1C0008CF1C0008CC
:101C4C00CF1C0008CF1C0008CF1C0008CF1C0008BC
:101C5C00CF1C0008CF1C00087D1C0008911C00083C
:101C6C00824A934213D02CE03B68DB683B6229E04C
:101C7C003B68DB6804333B6224E03B68DB68083379
:101C8C003B621FE03B68DB680C333B621AE03B684D
:101C9C009B68002B02D104233B6213E03B689B68DA
:101CAC00012B05D108233B627B68FA691A6109E0B4
:101CBC0008233B627B68FA695A6103E000233B62AC
:101CCC0000E000BFBB69FF2B01D87B6801E07B689B
:101CDC0004337B61BB69FF2B02D87B6A9B0002E05B
:101CEC007B6A083B9B003B617B691A680F213B694F
:101CFC0001FA03F3DB431A40396A3B6901FA03F337
:101D0C001A437B691A603B685B6803F08053002BB5
:101D1C0000F09080564B9B69554A43F00103936148
:101D2C00534B9B6903F00103BB60BB68514A7B6A50
:101D3C009B08023352F82330FB607B6A03F00303E9
:101D4C009B000F2202FA03F3DB43FA681340FB609B
:101D5C007B68494A93420DD07B68484A934207D02E
:101D6C007B68474A934201D1022304E0032302E03B
:101D7C00012300E000237A6A02F0030292009340F0
:101D8C00FA681343FB603B497B6A9B080233FA6891
:101D9C0041F823203B685B6803F48013002B06D0CA
:101DAC00384B9A683749BB6913438B6006E0354B57
:101DBC009A68BB69DB43334913408B603B685B68B3
:101DCC0003F40013002B06D02E4BDA682D49BB69A7
:101DDC001343CB6006E02B4BDA68BB69DB43294924
:101DEC001340CB603B685B6803F40033002B06D0D8
:101DFC00244B5A682349BB6913434B6006E0214BC3
:101E0C005A68BB69DB431F4913404B603B685B68F6
:101E1C0003F48033002B06D01A4B1A681949BB699E
:101E2C0013430B6006E0174B1A68BB69DB4315497B
:101E3C0013400B607B6A01337B623B681A687B6AD8
:101E4C0022FA03F3002B7FF4AFAE00BF00BF2C3798
:101E5C00BD4680BC704700BF00003210000031103E
:101E6C0000002210000021100000121000001110C0
:101E7C00001002400000014000080140000C01402D
:101E8C00001001400004014080B483B000AF7860C2
:101E9C000B467B8013467B707B78002B03D07A88B3
:101EAC007B681A6103E07B881A047B681A6100BFA7
:101EBC000C37BD4680BC704780B485B000AF7860ED
:101ECC000B467B807B68DB68FB607A88FB68134081
:101EDC001A04FB68D9437B880B401A437B681A6150
:101EEC0000BF1437BD4680BC7047000080B586B07B
:101EFC0000AF78607B68002B01D101236CE27B681A
:101F0C001B6803F00103002B00F08780924B5B6889
:101F1C0003F00C03042B0CD08F4B5B6803F00C0309
:101F2C00082B12D18C4B5B6803F48033B3F5803FE4
:101F3C000BD1894B1B6803F40033002B6CD07B68EE
:101F4C005B68002B68D1012346E27B685B68B3F5C4
:101F5C00803F06D1804B1B687F4A43F4803313606B
:101F6C002EE07B685B68002B0CD17B4B1B687A4A9C
:101F7C0023F480331360784B1B68774A23F4802357
:101F8C0013601DE07B685B68B3F5A02F0CD1724B1E
:101F9C001B68714A43F4802313606F4B1B686E4AB5
:101FAC0043F4803313600BE06B4B1B686A4A23F4D9
:101FBC0080331360684B1B68674A23F480231360DB
:101FCC007B685B68002B13D0FFF7CCFC386108E012
:101FDC00FFF7C8FC02463B69D31A642B01D90323D3
:101FEC00FAE15D4B1B6803F40033002BF0D014E0D6
:101FFC00FFF7B8FC386108E0FFF7B4FC02463B6918
:10200C00D31A642B01D90323E6E1534B1B6803F469
:10201C000033002BF0D100E000BF7B681B6803F09D
:10202C000203002B63D04C4B5B6803F00C03002BBA
:10203C000BD0494B5B6803F00C03082B1CD1464BAF
:10204C005B6803F48033002B16D1434B1B6803F001
:10205C000203002B05D07B681B69012B01D00123E7
:10206C00BAE13D4B1B6823F0F8027B685B69DB002F
:10207C00394913430B603AE07B681B69002B20D075
:10208C00364B01221A60FFF76DFC386108E0FFF750
:10209C0069FC02463B69D31A022B01D903239BE14D
:1020AC002D4B1B6803F00203002BF0D02A4B1B684E
:1020BC0023F0F8027B685B69DB00274913430B6054
:1020CC0015E0264B00221A60FFF74CFC386108E043
:1020DC00FFF748FC02463B69D31A022B01D90323B4
:1020EC007AE11D4B1B6803F00203002BF0D17B68D7
:1020FC001B6803F00803002B3AD07B689B69002B0C
:10210C0019D0174B01221A60FFF72CFC386108E03C
:10211C00FFF728FC02463B69D31A022B01D9032393
:10212C005AE10D4B5B6A03F00203002BF0D0012047
:10213C0000F09AFA1CE00A4B00221A60FFF712FC1E
:10214C0038610FE0FFF70EFC02463B69D31A022BF5
:10215C0008D9032340E100BF0010024000004242B6
:10216C00800442429E4B5B6A03F00203002BE9D1D0
:10217C007B681B6803F00403002B00F0A68000238F
:10218C00FB75974BDB6903F08053002B0DD1944BFF
:10219C00DB69934A43F08053D361914BDB6903F0C5
:1021AC008053BB60BB680123FB758E4B1B6803F42B
:1021BC008073002B18D18B4B1B688A4A43F48073B5
:1021CC001360FFF7CFFB386108E0FFF7CBFB02464B
:1021DC003B69D31A642B01D90323FDE0814B1B68A7
:1021EC0003F48073002BF0D07B68DB68012B06D1E5
:1021FC007B4B1B6A7A4A43F0010313622DE07B6828
:10220C00DB68002B0CD1764B1B6A754A23F001035B
:10221C001362734B1B6A724A23F0040313621CE0B3
:10222C007B68DB68052B0CD16D4B1B6A6C4A43F049
:10223C00040313626A4B1B6A694A43F0010313627D
:10224C000BE0674B1B6A664A23F001031362644B75
:10225C001B6A634A23F0040313627B68DB68002B60
:10226C0015D0FFF77FFB38610AE0FFF77BFB0246D6
:10227C003B69D31A41F28832934201D90323ABE074
:10228C00574B1B6A03F00203002BEED014E0FFF750
:10229C0069FB38610AE0FFF765FB02463B69D31A1C
:1022AC0041F28832934201D9032395E04C4B1B6ACF
:1022BC0003F00203002BEED1FB7D012B05D1484B23
:1022CC00DB69474A23F08053D3617B68DB69002BC1
:1022DC0000F08180424B5B6803F00C03082B61D04B
:1022EC007B68DB69022B46D13F4B00221A60FFF75B
:1022FC0039FB386108E0FFF735FB02463B69D31A1E
:10230C00022B01D9032367E0354B1B6803F00073E4
:10231C00002BF0D17B681B6AB3F5803F08D1304BA2
:10232C005B6823F400327B689B682D4913434B6038
:10233C002B4B5B6823F474127B68196A7B685B6AAD
:10234C000B43274913434B60274B01221A60FFF7BD
:10235C0009FB386108E0FFF705FB02463B69D31A1D
:10236C00022B01D9032337E01D4B1B6803F00073CC
:10237C00002BF0D02FE01C4B00221A60FFF7F2FA72
:10238C00386108E0FFF7EEFA02463B69D31A022BDC
:10239C0001D9032320E0124B1B6803F00073002BC0
:1023AC00F0D118E07B68DB69012B01D1012313E02C
:1023BC000B4B5B68FB60FB6803F480327B681B6A29
:1023CC009A4206D1FB6803F470127B685B6A9A42EE
:1023DC0001D0012300E0002318461837BD4680BD0C
:1023EC0000100240007000406000424280B584B092
:1023FC0000AF786039607B68002B01D10123D0E0FD
:10240C006A4B1B6803F007033A689A4210D9674B72
:10241C001B6823F0070265493B6813430B60634B51
:10242C001B6803F007033A689A4201D00123B8E015
:10243C007B681B6803F00203002B20D07B681B68B1
:10244C0003F00403002B05D0594B5B68584A43F446
:10245C00E06353607B681B6803F00803002B05D016
:10246C00534B5B68524A43F460535360504B5B6868
:10247C0023F0F0027B689B684D4913434B607B68EB
:10248C001B6803F00103002B40D07B685B68012BB9
:10249C0007D1474B1B6803F40033002B15D10123E4
:1024AC007FE07B685B68022B07D1414B1B6803F014
:1024BC000073002B09D1012373E03D4B1B6803F023
:1024CC000203002B01D101236BE0394B5B6823F035
:1024DC0003027B685B68364913434B60FFF742FA93
:1024EC00F8600AE0FFF73EFA0246FB68D31A41F2A5
:1024FC008832934201D9032353E02D4B5B6803F0E0
:10250C000C027B685B689B009A42EBD1274B1B68E3
:10251C0003F007033A689A4210D2244B1B6823F04D
:10252C00070222493B6813430B60204B1B6803F0E6
:10253C0007033A689A4201D0012332E07B681B689A
:10254C0003F00403002B08D0194B5B6823F4E06202
:10255C007B68DB68164913434B607B681B6803F090
:10256C000803002B09D0124B5B6823F460527B6884
:10257C001B69DB000E4913434B6000F021F8024647
:10258C000B4B5B681B0903F00F030A49CB5C22FA67
:10259C0003F3094A1360094B1B681846FFF7A0F9AF
:1025AC00002318461037BD4680BD00BF00200240F6
:1025BC0000100240E02E0008280000202C00002013
:1025CC0080B487B000AF0023FB600023BB60002306
:1025DC007B6100237B6000233B611E4B5B68FB60CF
:1025EC00FB6803F00C03042B02D0082B03D027E06C
:1025FC00194B3B6127E0FB689B0C03F00F03174A58
:10260C00D35C7B60FB6803F48033002B10D0114B40
:10261C005B685B0C03F00103114AD35CBB607B6805
:10262C000D4A02FB03F2BB68B2FBF3F37B6104E0DF
:10263C007B680C4A02FB03F37B617B693B6102E024
:10264C00054B3B6100BF3B6918461C37BD4680BC3F
:10265C00704700BF0010024000127A00F02E0008F4
:10266C00002F000800093D0080B485B000AF7860F1
:10267C000A4B1B680A4AA2FB03235B0A7A6802FB1B
:10268C0003F3FB6000BFFB685A1EFA60002BF9D104
:10269C0000BF00BF1437BD4680BC70472800002027
:1026AC00D34D621080B582B000AF78607B68002B90
:1026BC0001D1012341E07B6893F83D30DBB2002B64
:1026CC0006D17B68002283F83C207868FFF770F80D
:1026DC007B68022283F83D207B681A687B68043390
:1026EC001946104600F056FA7B68012283F8462002
:1026FC007B68012283F83E207B68012283F83F200F
:10270C007B68012283F840207B68012283F84120FA
:10271C007B68012283F842207B68012283F84320E6
:10272C007B68012283F844207B68012283F84520D2
:10273C007B68012283F83D20002318460837BD46EC
:10274C0080BD000080B485B000AF78607B6893F8E2
:10275C003D30DBB2012B01D0012335E07B68022236
:10276C0083F83D207B681B68DA687B681B6842F045
:10277C000102DA607B681B68164A934209D07B68B9
:10278C001B68B3F1804F04D07B681B68124A9342DC
:10279C0011D17B681B689B6803F00703FB60FB6827
:1027AC00062B10D07B681B681A687B681B6842F08C
:1027BC0001021A6007E07B681B681A687B681B685B
:1027CC0042F001021A60002318461437BD4680BC43
:1027DC00704700BF002C01400004004080B584B05D
:1027EC0000AF78607B681B68DB68FB607B681B68EC
:1027FC001B69BB60BB6803F00203002B20D0FB6895
:10280C0003F00203002B1BD07B681B686FF00202E5
:10281C001A617B6801221A777B681B689B6903F03D
:10282C000303002B03D0786800F098F905E0786872
:10283C0000F08BF9786800F09AF97B6800221A771F
:10284C00BB6803F00403002B20D0FB6803F00403E7
:10285C00002B1BD07B681B686FF004021A617B682D
:10286C0002221A777B681B689B6903F44073002B68
:10287C0003D0786800F072F905E0786800F065F92B
:10288C00786800F074F97B6800221A77BB6803F053
:10289C000803002B20D0FB6803F00803002B1BD08F
:1028AC007B681B686FF008021A617B6804221A7738
:1028BC007B681B68DB6903F00303002B03D078688B
:1028CC0000F04CF905E0786800F03FF9786800F00A
:1028DC004EF97B6800221A77BB6803F01003002BBB
:1028EC0020D0FB6803F01003002B1BD07B681B6807
:1028FC006FF010021A617B6808221A777B681B68DC
:10290C00DB6903F44073002B03D0786800F026F9E0
:10291C0005E0786800F019F9786800F028F97B6810
:10292C0000221A77BB6803F00103002B0CD0FB6864
:10293C0003F00103002B07D07B681B686FF00102CA
:10294C001A617868FEF706FEBB6803F08003002B63
:10295C000CD0FB6803F08003002B07D07B681B684E
:10296C006FF080021A61786800F06FFABB6803F0B0
:10297C004003002B0CD0FB6803F04003002B07D066
:10298C007B681B686FF040021A61786800F0F8F8F9
:10299C00BB6803F02003002B0CD0FB6803F0200372
:1029AC00002B07D07B681B686FF020021A617868D7
:1029BC0000F042FA00BF1037BD4680BD80B584B030
:1029CC0000AF786039600023FB737B6893F83C3070
:1029DC00012B01D10223B4E07B68012283F83C2057
:1029EC007B68022283F83D207B681B689B68BB6078
:1029FC00BB6823F07703BB60BB6823F47F43BB60E9
:102A0C007B681B68BA689A603B681B68B3F5005F0B
:102A1C003ED0B3F5005F00F28780B3F5805F00F025
:102A2C008680B3F5805F7FD8702B1AD0702B7BD843
:102A3C00602B50D0602B77D8502B3CD0502B73D8B8
:102A4C00402B58D0402B6FD8302B64D0302B6BD808
:102A5C00202B60D0202B67D8002B5CD0102B5AD0A9
:102A6C0062E07B6818683B6899683B685A683B6809
:102A7C00DB6800F06AF97B681B689B68BB60BB680D
:102A8C0043F07703BB607B681B68BA689A604FE0C1
:102A9C007B6818683B6899683B685A683B68DB68D8
:102AAC0000F053F97B681B689A687B681B6842F4DA
:102ABC0080429A603CE07B6818683B6859683B68C8
:102ACC00DB681A4600F0CAF87B681B685021184670
:102ADC0000F021F92CE07B6818683B6859683B686A
:102AEC00DB681A4600F0E8F87B681B686021184622
:102AFC0000F011F91CE07B6818683B6859683B686A
:102B0C00DB681A4600F0AAF87B681B68402118465F
:102B1C0000F001F90CE07B681A683B681B681946E9
:102B2C00104600F0F8F803E00123FB7300E000BF4F
:102B3C007B68012283F83D207B68002283F83C20CF
:102B4C00FB7B18461037BD4680BD80B483B000AF08
:102B5C00786000BF0C37BD4680BC704780B483B032
:102B6C0000AF786000BF0C37BD4680BC704780B4A6
:102B7C0083B000AF786000BF0C37BD4680BC704797
:102B8C0080B483B000AF786000BF0C37BD4680BC0A
:102B9C007047000080B485B000AF786039607B6806
:102BAC001B68FB607B682B4A934207D07B68B3F1B0
:102BBC00804F03D07B68284A934208D1FB6823F0EE
:102BCC007003FB603B685B68FA681343FB607B68CF
:102BDC00204A934207D07B68B3F1804F03D07B68C7
:102BEC001D4A934208D1FB6823F44073FB603B6899
:102BFC00DB68FA681343FB60FB6823F080023B68D8
:102C0C005B691343FB607B68FA681A603B689A68DF
:102C1C007B68DA623B681A687B689A627B680D4A4B
:102C2C00934203D13B681A697B681A637B68012263
:102C3C005A617B681B6903F00103002B05D07B688C
:102C4C001B6923F001027B681A6100BF1437BD4673
:102C5C0080BC7047002C01400004004080B487B059
:102C6C0000AFF860B9607A60FB681B6A7B61FB6837
:102C7C001B6A23F00102FB681A62FB689B693B61CB
:102C8C003B6923F0F0033B617B681B013A691343FA
:102C9C003B617B6923F00A037B617A69BB68134350
:102CAC007B61FB683A699A61FB687A691A6200BFBA
:102CBC001C37BD4680BC704780B487B000AFF8604D
:102CCC00B9607A60FB681B6A7B61FB681B6A23F046
:102CDC001002FB681A62FB689B693B613B6923F439
:102CEC0070433B617B681B033A6913433B617B690F
:102CFC0023F0A0037B61BB681B017A6913437B61E2
:102D0C00FB683A699A61FB687A691A6200BF1C37E2
:102D1C00BD4680BC704780B485B000AF7860396028
:102D2C007B689B68FB60FB6823F07003FB603A6870
:102D3C00FB68134343F00703FB607B68FA689A60F7
:102D4C0000BF1437BD4680BC704780B487B000AF5D
:102D5C00F860B9607A603B60FB689B687B617B695B
:102D6C0023F47F437B613B681A027B681A43BB6880
:102D7C0013437A6913437B61FB687A699A6000BFDD
:102D8C001C37BD4680BC704780B485B000AF7860FE
:102D9C0039607B6893F83C30012B01D1022341E070
:102DAC007B68012283F83C207B68022283F83D205B
:102DBC007B681B685B68FB607B681B689B68BB60FF
:102DCC00FB6823F07003FB603B681B68FA681343D5
:102DDC00FB607B681B68FA685A607B681B68144A46
:102DEC00934209D07B681B68B3F1804F04D07B6899
:102DFC001B68104A93420CD1BB6823F08003BB6064
:102E0C003B685B68BA681343BB607B681B68BA6835
:102E1C009A607B68012283F83D207B68002283F84E
:102E2C003C20002318461437BD4680BC704700BFB9
:102E3C00002C01400004004080B483B000AF7860E7
:102E4C0000BF0C37BD4680BC704780B483B000AF68
:102E5C00786000BF0C37BD4680BC704770B500264B
:102E6C000C4D0D4C641BA410A64209D100F022F8A5
:102E7C0000260A4D0A4C641BA410A64205D170BD55
:102E8C0055F8043B98470136EEE755F8043B984754
:102E9C000136F2E7042F0008042F0008042F000865
:102EAC00082F000803460244934200D1704703F8F0
:102EBC00011BF9E7F8B500BFF8BC08BC9E4670478B
:0C2ECC00F8B500BFF8BC08BC9E4670477B
:102ED80004000000080000000000000000000000DE
:102EE8000102030406070809020304050607080986
:0C2EF8000A0B0C0D0E0F10100102000060
:042F0400310100088F
:042F08000D010008AF
:102F0C0001000000020000000300000004000000AB
:102F1C00C381183C00003C3C0F000000080000007E
:102F2C00320000000A00000000127A0010000000BD
:042F3C000100000090
:040000050800187562
:00000001FF
